{
  "_format": "hh-sol-artifact-1",
  "contractName": "MyEpicNft",
  "sourceName": "contracts/MyEpicSol.sol",
  "abi": [
    {
      "inputs": [],
      "stateMutability": "nonpayable",
      "type": "constructor"
    },
    {
      "anonymous": false,
      "inputs": [
        {
          "indexed": true,
          "internalType": "address",
          "name": "owner",
          "type": "address"
        },
        {
          "indexed": true,
          "internalType": "address",
          "name": "approved",
          "type": "address"
        },
        {
          "indexed": true,
          "internalType": "uint256",
          "name": "tokenId",
          "type": "uint256"
        }
      ],
      "name": "Approval",
      "type": "event"
    },
    {
      "anonymous": false,
      "inputs": [
        {
          "indexed": true,
          "internalType": "address",
          "name": "owner",
          "type": "address"
        },
        {
          "indexed": true,
          "internalType": "address",
          "name": "operator",
          "type": "address"
        },
        {
          "indexed": false,
          "internalType": "bool",
          "name": "approved",
          "type": "bool"
        }
      ],
      "name": "ApprovalForAll",
      "type": "event"
    },
    {
      "anonymous": false,
      "inputs": [
        {
          "indexed": false,
          "internalType": "address",
          "name": "sender",
          "type": "address"
        },
        {
          "indexed": false,
          "internalType": "uint256",
          "name": "tokenId",
          "type": "uint256"
        }
      ],
      "name": "NewApicNFTMinted",
      "type": "event"
    },
    {
      "anonymous": false,
      "inputs": [
        {
          "indexed": true,
          "internalType": "address",
          "name": "from",
          "type": "address"
        },
        {
          "indexed": true,
          "internalType": "address",
          "name": "to",
          "type": "address"
        },
        {
          "indexed": true,
          "internalType": "uint256",
          "name": "tokenId",
          "type": "uint256"
        }
      ],
      "name": "Transfer",
      "type": "event"
    },
    {
      "inputs": [
        {
          "internalType": "address",
          "name": "to",
          "type": "address"
        },
        {
          "internalType": "uint256",
          "name": "tokenId",
          "type": "uint256"
        }
      ],
      "name": "approve",
      "outputs": [],
      "stateMutability": "nonpayable",
      "type": "function"
    },
    {
      "inputs": [
        {
          "internalType": "address",
          "name": "owner",
          "type": "address"
        }
      ],
      "name": "balanceOf",
      "outputs": [
        {
          "internalType": "uint256",
          "name": "",
          "type": "uint256"
        }
      ],
      "stateMutability": "view",
      "type": "function"
    },
    {
      "inputs": [
        {
          "internalType": "uint256",
          "name": "tokenId",
          "type": "uint256"
        }
      ],
      "name": "getApproved",
      "outputs": [
        {
          "internalType": "address",
          "name": "",
          "type": "address"
        }
      ],
      "stateMutability": "view",
      "type": "function"
    },
    {
      "inputs": [
        {
          "internalType": "uint256",
          "name": "tokenId",
          "type": "uint256"
        }
      ],
      "name": "getFirstWord",
      "outputs": [
        {
          "internalType": "string",
          "name": "",
          "type": "string"
        }
      ],
      "stateMutability": "view",
      "type": "function"
    },
    {
      "inputs": [
        {
          "internalType": "uint256",
          "name": "tokenId",
          "type": "uint256"
        }
      ],
      "name": "getSecondWord",
      "outputs": [
        {
          "internalType": "string",
          "name": "",
          "type": "string"
        }
      ],
      "stateMutability": "view",
      "type": "function"
    },
    {
      "inputs": [
        {
          "internalType": "uint256",
          "name": "tokenId",
          "type": "uint256"
        }
      ],
      "name": "getThirdWord",
      "outputs": [
        {
          "internalType": "string",
          "name": "",
          "type": "string"
        }
      ],
      "stateMutability": "view",
      "type": "function"
    },
    {
      "inputs": [],
      "name": "getTotalNftCount",
      "outputs": [
        {
          "internalType": "uint256",
          "name": "",
          "type": "uint256"
        }
      ],
      "stateMutability": "view",
      "type": "function"
    },
    {
      "inputs": [
        {
          "internalType": "address",
          "name": "owner",
          "type": "address"
        },
        {
          "internalType": "address",
          "name": "operator",
          "type": "address"
        }
      ],
      "name": "isApprovedForAll",
      "outputs": [
        {
          "internalType": "bool",
          "name": "",
          "type": "bool"
        }
      ],
      "stateMutability": "view",
      "type": "function"
    },
    {
      "inputs": [],
      "name": "makeAnEpicNFT",
      "outputs": [],
      "stateMutability": "nonpayable",
      "type": "function"
    },
    {
      "inputs": [],
      "name": "name",
      "outputs": [
        {
          "internalType": "string",
          "name": "",
          "type": "string"
        }
      ],
      "stateMutability": "view",
      "type": "function"
    },
    {
      "inputs": [
        {
          "internalType": "uint256",
          "name": "tokenId",
          "type": "uint256"
        }
      ],
      "name": "ownerOf",
      "outputs": [
        {
          "internalType": "address",
          "name": "",
          "type": "address"
        }
      ],
      "stateMutability": "view",
      "type": "function"
    },
    {
      "inputs": [
        {
          "internalType": "address",
          "name": "from",
          "type": "address"
        },
        {
          "internalType": "address",
          "name": "to",
          "type": "address"
        },
        {
          "internalType": "uint256",
          "name": "tokenId",
          "type": "uint256"
        }
      ],
      "name": "safeTransferFrom",
      "outputs": [],
      "stateMutability": "nonpayable",
      "type": "function"
    },
    {
      "inputs": [
        {
          "internalType": "address",
          "name": "from",
          "type": "address"
        },
        {
          "internalType": "address",
          "name": "to",
          "type": "address"
        },
        {
          "internalType": "uint256",
          "name": "tokenId",
          "type": "uint256"
        },
        {
          "internalType": "bytes",
          "name": "_data",
          "type": "bytes"
        }
      ],
      "name": "safeTransferFrom",
      "outputs": [],
      "stateMutability": "nonpayable",
      "type": "function"
    },
    {
      "inputs": [
        {
          "internalType": "address",
          "name": "operator",
          "type": "address"
        },
        {
          "internalType": "bool",
          "name": "approved",
          "type": "bool"
        }
      ],
      "name": "setApprovalForAll",
      "outputs": [],
      "stateMutability": "nonpayable",
      "type": "function"
    },
    {
      "inputs": [
        {
          "internalType": "bytes4",
          "name": "interfaceId",
          "type": "bytes4"
        }
      ],
      "name": "supportsInterface",
      "outputs": [
        {
          "internalType": "bool",
          "name": "",
          "type": "bool"
        }
      ],
      "stateMutability": "view",
      "type": "function"
    },
    {
      "inputs": [],
      "name": "symbol",
      "outputs": [
        {
          "internalType": "string",
          "name": "",
          "type": "string"
        }
      ],
      "stateMutability": "view",
      "type": "function"
    },
    {
      "inputs": [
        {
          "internalType": "uint256",
          "name": "tokenId",
          "type": "uint256"
        }
      ],
      "name": "tokenURI",
      "outputs": [
        {
          "internalType": "string",
          "name": "",
          "type": "string"
        }
      ],
      "stateMutability": "view",
      "type": "function"
    },
    {
      "inputs": [
        {
          "internalType": "address",
          "name": "from",
          "type": "address"
        },
        {
          "internalType": "address",
          "name": "to",
          "type": "address"
        },
        {
          "internalType": "uint256",
          "name": "tokenId",
          "type": "uint256"
        }
      ],
      "name": "transferFrom",
      "outputs": [],
      "stateMutability": "nonpayable",
      "type": "function"
    }
  ],
  "bytecode": "0x60806040526040518061014001604052806040518060400160405280600c81526020017fd09fd0b5d182d180d0bed0b2000000000000000000000000000000000000000081525081526020016040518060400160405280601081526020017fd09ad180d0b8d181d0b0d0bdd0bed0b20000000000000000000000000000000081525081526020016040518060400160405280600881526020017fd091d0b5d0b7d0b000000000000000000000000000000000000000000000000081525081526020016040518060400160405280600a81526020017fd09cd0b0d188d183d0ba0000000000000000000000000000000000000000000081525081526020016040518060400160405280601281526020017fd0a1d0b8d0b4d0bed180d0bed0b2d0b8d187000000000000000000000000000081525081526020016040518060400160405280600c81526020017fd090d0bdd0b8d0bad0b8d0bd000000000000000000000000000000000000000081525081526020016040518060400160405280601281526020017fd0a1d182d0b8d0b2d0b5d0bdd181d0bed0bd000000000000000000000000000081525081526020016040518060400160405280600c81526020017fd09ad183d0bad183d0bbd0be000000000000000000000000000000000000000081525081526020016040518060400160405280600c81526020017fd0a0d0b8d182d187d0b8d0ba000000000000000000000000000000000000000081525081526020016040518060400160405280601681526020017fd097d0b0d18fd0bdd0bad0bed0b2d181d0bad0b8d0b900000000000000000000815250815250600990600a6200026e92919062000945565b506040518061014001604052806040518060400160405280600e81526020017fd095d0b2d0b3d0b5d0bdd0b8d0b900000000000000000000000000000000000081525081526020016040518060400160405280600c81526020017fd09cd0b8d185d0b0d0b8d0bb000000000000000000000000000000000000000081525081526020016040518060400160405280601281526020017fd092d0bbd0b0d0b4d0b8d181d0bbd0b0d0b2000000000000000000000000000081525081526020016040518060400160405280600881526020017fd098d0b2d0b0d0bd00000000000000000000000000000000000000000000000081525081526020016040518060400160405280600c81526020017fd09cd0b0d0bad181d0b8d0bc000000000000000000000000000000000000000081525081526020016040518060400160405280600a81526020017fd090d180d182d191d0bc0000000000000000000000000000000000000000000081525081526020016040518060400160405280600c81526020017fd0a2d180d0b5d0b2d0b8d181000000000000000000000000000000000000000081525081526020016040518060400160405280600a81526020017fd09fd0b0d0b2d0b5d0bb0000000000000000000000000000000000000000000081525081526020016040518060400160405280600c81526020017fd09dd0b8d0bad0b8d182d0b0000000000000000000000000000000000000000081525081526020016040518060400160405280600c81526020017fd094d0b0d0bdd0b8d0b8d0bb0000000000000000000000000000000000000000815250815250600a90600a620004d992919062000945565b506040518061014001604052806040518060400160405280601081526020017fd098d0b3d0bed180d0b5d0b2d0b8d1870000000000000000000000000000000081525081526020016040518060400160405280601481526020017fd09cd0b0d185d0b0d0b9d0bbd0bed0b2d0b8d18700000000000000000000000081525081526020016040518060400160405280601081526020017fd098d0b2d0b0d0bdd0bed0b2d0b8d1870000000000000000000000000000000081525081526020016040518060400160405280601481526020017fd09cd0b0d0bad181d0b8d0bcd0bed0b2d0b8d18700000000000000000000000081525081526020016040518060400160405280601281526020017fd090d180d182d191d0bcd0bed0b2d0b8d187000000000000000000000000000081525081526020016040518060400160405280600e81526020017fd09cd0bbd0b0d0b4d188d0b8d0b900000000000000000000000000000000000081525081526020016040518060400160405280601081526020017fd09fd0b0d0b2d0bbd0bed0b2d0b8d1870000000000000000000000000000000081525081526020016040518060400160405280600e81526020017fd09dd0b8d0bad0b8d182d0b8d18700000000000000000000000000000000000081525081526020016040518060400160405280601281526020017fd094d0b0d0bdd0b8d0bad0bed0b2d0b8d187000000000000000000000000000081525081526020016040518060400160405280601481526020017fd094d0bcd0b8d182d180d0b8d0b5d0b2d0b8d187000000000000000000000000815250815250600b90600a6200074492919062000945565b5060405180610160016040528061012f8152602001620047f361012f9139600c908051906020019062000779929190620009ac565b503480156200078757600080fd5b506040518060400160405280600981526020017f5371756172654e465400000000000000000000000000000000000000000000008152506040518060400160405280600681526020017f535155415245000000000000000000000000000000000000000000000000000081525081600090805190602001906200080c929190620009ac565b50806001908051906020019062000825929190620009ac565b505050620008736040518060400160405280601481526020017f436f6e7472616374206973206465706c6f7965640000000000000000000000008152506200087960201b620011c61760201c565b62000bf7565b620009198160405160240162000890919062000b0b565b6040516020818303038152906040527f41304fac000000000000000000000000000000000000000000000000000000007bffffffffffffffffffffffffffffffffffffffffffffffffffffffff19166020820180517bffffffffffffffffffffffffffffffffffffffffffffffffffffffff83818316178352505050506200091c60201b60201c565b50565b60008151905060006a636f6e736f6c652e6c6f679050602083016000808483855afa5050505050565b82805482825590600052602060002090810192821562000999579160200282015b828111156200099857825182908051906020019062000987929190620009ac565b509160200191906001019062000966565b5b509050620009a8919062000a3d565b5090565b828054620009ba9062000b81565b90600052602060002090601f016020900481019282620009de576000855562000a2a565b82601f10620009f957805160ff191683800117855562000a2a565b8280016001018555821562000a2a579182015b8281111562000a2957825182559160200191906001019062000a0c565b5b50905062000a39919062000a65565b5090565b5b8082111562000a61576000818162000a57919062000a84565b5060010162000a3e565b5090565b5b8082111562000a8057600081600090555060010162000a66565b5090565b50805462000a929062000b81565b6000825580601f1062000aa6575062000ac7565b601f01602090049060005260206000209081019062000ac6919062000a65565b5b50565b600062000ad78262000b2f565b62000ae3818562000b3a565b935062000af581856020860162000b4b565b62000b008162000be6565b840191505092915050565b6000602082019050818103600083015262000b27818462000aca565b905092915050565b600081519050919050565b600082825260208201905092915050565b60005b8381101562000b6b57808201518184015260208101905062000b4e565b8381111562000b7b576000848401525b50505050565b6000600282049050600182168062000b9a57607f821691505b6020821081141562000bb15762000bb062000bb7565b5b50919050565b7f4e487b7100000000000000000000000000000000000000000000000000000000600052602260045260246000fd5b6000601f19601f8301169050919050565b613bec8062000c076000396000f3fe608060405234801561001057600080fd5b50600436106101165760003560e01c80638389757a116100a2578063c3fd2ce711610071578063c3fd2ce7146102f1578063c87b56dd14610321578063ca33911714610351578063de9d132f14610381578063e985e9c51461038b57610116565b80638389757a1461027d57806395d89b411461029b578063a22cb465146102b9578063b88d4fde146102d557610116565b80631891c1e6116100e95780631891c1e6146101b557806323b872dd146101e557806342842e0e146102015780636352211e1461021d57806370a082311461024d57610116565b806301ffc9a71461011b57806306fdde031461014b578063081812fc14610169578063095ea7b314610199575b600080fd5b610135600480360381019061013091906125d3565b6103bb565b6040516101429190612d45565b60405180910390f35b61015361049d565b6040516101609190612d60565b60405180910390f35b610183600480360381019061017e9190612625565b61052f565b6040516101909190612cb5565b60405180910390f35b6101b360048036038101906101ae9190612597565b6105b4565b005b6101cf60048036038101906101ca9190612625565b6106cc565b6040516101dc9190612d60565b60405180910390f35b6101ff60048036038101906101fa9190612491565b6107ea565b005b61021b60048036038101906102169190612491565b61084a565b005b61023760048036038101906102329190612625565b61086a565b6040516102449190612cb5565b60405180910390f35b6102676004803603810190610262919061242c565b61091c565b6040516102749190612fe0565b60405180910390f35b6102856109d4565b6040516102929190612fe0565b60405180910390f35b6102a3610a1b565b6040516102b09190612d60565b60405180910390f35b6102d360048036038101906102ce919061255b565b610aad565b005b6102ef60048036038101906102ea91906124e0565b610ac3565b005b61030b60048036038101906103069190612625565b610b25565b6040516103189190612d60565b60405180910390f35b61033b60048036038101906103369190612625565b610c43565b6040516103489190612d60565b60405180910390f35b61036b60048036038101906103669190612625565b610d95565b6040516103789190612d60565b60405180910390f35b610389610eb3565b005b6103a560048036038101906103a09190612455565b611132565b6040516103b29190612d45565b60405180910390f35b60007f80ac58cd000000000000000000000000000000000000000000000000000000007bffffffffffffffffffffffffffffffffffffffffffffffffffffffff1916827bffffffffffffffffffffffffffffffffffffffffffffffffffffffff1916148061048657507f5b5e139f000000000000000000000000000000000000000000000000000000007bffffffffffffffffffffffffffffffffffffffffffffffffffffffff1916827bffffffffffffffffffffffffffffffffffffffffffffffffffffffff1916145b8061049657506104958261125f565b5b9050919050565b6060600080546104ac90613274565b80601f01602080910402602001604051908101604052809291908181526020018280546104d890613274565b80156105255780601f106104fa57610100808354040283529160200191610525565b820191906000526020600020905b81548152906001019060200180831161050857829003601f168201915b5050505050905090565b600061053a826112c9565b610579576040517f08c379a000000000000000000000000000000000000000000000000000000000815260040161057090612f40565b60405180910390fd5b6004600083815260200190815260200160002060009054906101000a900473ffffffffffffffffffffffffffffffffffffffff169050919050565b60006105bf8261086a565b90508073ffffffffffffffffffffffffffffffffffffffff168373ffffffffffffffffffffffffffffffffffffffff161415610630576040517f08c379a000000000000000000000000000000000000000000000000000000000815260040161062790612fa0565b60405180910390fd5b8073ffffffffffffffffffffffffffffffffffffffff1661064f611335565b73ffffffffffffffffffffffffffffffffffffffff16148061067e575061067d81610678611335565b611132565b5b6106bd576040517f08c379a00000000000000000000000000000000000000000000000000000000081526004016106b490612e80565b60405180910390fd5b6106c7838361133d565b505050565b606060006107006106dc846113f6565b6040516020016106ec9190612c71565b6040516020818303038152906040526115a3565b9050600980549050816107139190613320565b90506009818154811061074f577f4e487b7100000000000000000000000000000000000000000000000000000000600052603260045260246000fd5b90600052602060002001805461076490613274565b80601f016020809104026020016040519081016040528092919081815260200182805461079090613274565b80156107dd5780601f106107b2576101008083540402835291602001916107dd565b820191906000526020600020905b8154815290600101906020018083116107c057829003601f168201915b5050505050915050919050565b6107fb6107f5611335565b826115d6565b61083a576040517f08c379a000000000000000000000000000000000000000000000000000000000815260040161083190612fc0565b60405180910390fd5b6108458383836116b4565b505050565b61086583838360405180602001604052806000815250610ac3565b505050565b6000806002600084815260200190815260200160002060009054906101000a900473ffffffffffffffffffffffffffffffffffffffff169050600073ffffffffffffffffffffffffffffffffffffffff168173ffffffffffffffffffffffffffffffffffffffff161415610913576040517f08c379a000000000000000000000000000000000000000000000000000000000815260040161090a90612ec0565b60405180910390fd5b80915050919050565b60008073ffffffffffffffffffffffffffffffffffffffff168273ffffffffffffffffffffffffffffffffffffffff16141561098d576040517f08c379a000000000000000000000000000000000000000000000000000000000815260040161098490612ea0565b60405180910390fd5b600360008373ffffffffffffffffffffffffffffffffffffffff1673ffffffffffffffffffffffffffffffffffffffff168152602001908152602001600020549050919050565b6000600860003373ffffffffffffffffffffffffffffffffffffffff1673ffffffffffffffffffffffffffffffffffffffff16815260200190815260200160002054905090565b606060018054610a2a90613274565b80601f0160208091040260200160405190810160405280929190818152602001828054610a5690613274565b8015610aa35780601f10610a7857610100808354040283529160200191610aa3565b820191906000526020600020905b815481529060010190602001808311610a8657829003601f168201915b5050505050905090565b610abf610ab8611335565b838361191b565b5050565b610ad4610ace611335565b836115d6565b610b13576040517f08c379a0000000000000000000000000000000000000000000000000000000008152600401610b0a90612fc0565b60405180910390fd5b610b1f84848484611a88565b50505050565b60606000610b59610b35846113f6565b604051602001610b459190612be8565b6040516020818303038152906040526115a3565b9050600b8054905081610b6c9190613320565b9050600b8181548110610ba8577f4e487b7100000000000000000000000000000000000000000000000000000000600052603260045260246000fd5b906000526020600020018054610bbd90613274565b80601f0160208091040260200160405190810160405280929190818152602001828054610be990613274565b8015610c365780601f10610c0b57610100808354040283529160200191610c36565b820191906000526020600020905b815481529060010190602001808311610c1957829003601f168201915b5050505050915050919050565b6060610c4e826112c9565b610c8d576040517f08c379a0000000000000000000000000000000000000000000000000000000008152600401610c8490612f20565b60405180910390fd5b6000600660008481526020019081526020016000208054610cad90613274565b80601f0160208091040260200160405190810160405280929190818152602001828054610cd990613274565b8015610d265780601f10610cfb57610100808354040283529160200191610d26565b820191906000526020600020905b815481529060010190602001808311610d0957829003601f168201915b505050505090506000610d37611ae4565b9050600081511415610d4d578192505050610d90565b600082511115610d82578082604051602001610d6a929190612b42565b60405160208183030381529060405292505050610d90565b610d8b84611afb565b925050505b919050565b60606000610dc9610da5846113f6565b604051602001610db59190612c0a565b6040516020818303038152906040526115a3565b9050600a8054905081610ddc9190613320565b9050600a8181548110610e18577f4e487b7100000000000000000000000000000000000000000000000000000000600052603260045260246000fd5b906000526020600020018054610e2d90613274565b80601f0160208091040260200160405190810160405280929190818152602001828054610e5990613274565b8015610ea65780601f10610e7b57610100808354040283529160200191610ea6565b820191906000526020600020905b815481529060010190602001808311610e8957829003601f168201915b5050505050915050919050565b6032600860003373ffffffffffffffffffffffffffffffffffffffff1673ffffffffffffffffffffffffffffffffffffffff168152602001908152602001600020541115610f36576040517f08c379a0000000000000000000000000000000000000000000000000000000008152600401610f2d90612f80565b60405180910390fd5b6000610f426007611ba2565b90506000610f4f826106cc565b90506000610f5c83610d95565b90506000610f6984610b25565b90506000838383604051602001610f8293929190612b66565b60405160208183030381529060405290506000600c82604051602001610fa9929190612b97565b60405160208183030381529060405290506000610fee83610fc984611bb0565b604051602001610fda929190612c2c565b604051602081830303815290604052611bb0565b90506000816040516020016110039190612c93565b604051602081830303815290604052905061103c816040516020016110289190612bc6565b6040516020818303038152906040526111c6565b6110463389611d4f565b6110508882611d6d565b6110906040518060400160405280602081526020017f4e46542077697468206964202d2025642c206d696e74656420746f202d2025738152508933611de1565b7fa677504b1c391bffb14621f054b35162dfdceb8d27a5deb67b27f34344b0ebb533896040516110c1929190612d1c565b60405180910390a16110d36007611e80565b600860003373ffffffffffffffffffffffffffffffffffffffff1673ffffffffffffffffffffffffffffffffffffffff1681526020019081526020016000206000815480929190611123906132d7565b91905055505050505050505050565b6000600560008473ffffffffffffffffffffffffffffffffffffffff1673ffffffffffffffffffffffffffffffffffffffff16815260200190815260200160002060008373ffffffffffffffffffffffffffffffffffffffff1673ffffffffffffffffffffffffffffffffffffffff16815260200190815260200160002060009054906101000a900460ff16905092915050565b61125c816040516024016111da9190612d60565b6040516020818303038152906040527f41304fac000000000000000000000000000000000000000000000000000000007bffffffffffffffffffffffffffffffffffffffffffffffffffffffff19166020820180517bffffffffffffffffffffffffffffffffffffffffffffffffffffffff8381831617835250505050611e96565b50565b60007f01ffc9a7000000000000000000000000000000000000000000000000000000007bffffffffffffffffffffffffffffffffffffffffffffffffffffffff1916827bffffffffffffffffffffffffffffffffffffffffffffffffffffffff1916149050919050565b60008073ffffffffffffffffffffffffffffffffffffffff166002600084815260200190815260200160002060009054906101000a900473ffffffffffffffffffffffffffffffffffffffff1673ffffffffffffffffffffffffffffffffffffffff1614159050919050565b600033905090565b816004600083815260200190815260200160002060006101000a81548173ffffffffffffffffffffffffffffffffffffffff021916908373ffffffffffffffffffffffffffffffffffffffff160217905550808273ffffffffffffffffffffffffffffffffffffffff166113b08361086a565b73ffffffffffffffffffffffffffffffffffffffff167f8c5be1e5ebec7d5bd14f71427d1e84f3dd0314c0f7b2291e5b200ac8c7c3b92560405160405180910390a45050565b6060600082141561143e576040518060400160405280600181526020017f3000000000000000000000000000000000000000000000000000000000000000815250905061159e565b600082905060005b60008214611470578080611459906132d7565b915050600a8261146991906130ff565b9150611446565b60008167ffffffffffffffff8111156114b2577f4e487b7100000000000000000000000000000000000000000000000000000000600052604160045260246000fd5b6040519080825280601f01601f1916602001820160405280156114e45781602001600182028036833780820191505090505b5090505b60008514611597576001826114fd919061318a565b9150600a8561150c9190613320565b603061151891906130a9565b60f81b818381518110611554577f4e487b7100000000000000000000000000000000000000000000000000000000600052603260045260246000fd5b60200101907effffffffffffffffffffffffffffffffffffffffffffffffffffffffffffff1916908160001a905350600a8561159091906130ff565b94506114e8565b8093505050505b919050565b6000816040516020016115b69190612b2b565b6040516020818303038152906040528051906020012060001c9050919050565b60006115e1826112c9565b611620576040517f08c379a000000000000000000000000000000000000000000000000000000000815260040161161790612e60565b60405180910390fd5b600061162b8361086a565b90508073ffffffffffffffffffffffffffffffffffffffff168473ffffffffffffffffffffffffffffffffffffffff16148061169a57508373ffffffffffffffffffffffffffffffffffffffff166116828461052f565b73ffffffffffffffffffffffffffffffffffffffff16145b806116ab57506116aa8185611132565b5b91505092915050565b8273ffffffffffffffffffffffffffffffffffffffff166116d48261086a565b73ffffffffffffffffffffffffffffffffffffffff161461172a576040517f08c379a000000000000000000000000000000000000000000000000000000000815260040161172190612de0565b60405180910390fd5b600073ffffffffffffffffffffffffffffffffffffffff168273ffffffffffffffffffffffffffffffffffffffff16141561179a576040517f08c379a000000000000000000000000000000000000000000000000000000000815260040161179190612e20565b60405180910390fd5b6117a5838383611ebf565b6117b060008261133d565b6001600360008573ffffffffffffffffffffffffffffffffffffffff1673ffffffffffffffffffffffffffffffffffffffff1681526020019081526020016000206000828254611800919061318a565b925050819055506001600360008473ffffffffffffffffffffffffffffffffffffffff1673ffffffffffffffffffffffffffffffffffffffff168152602001908152602001600020600082825461185791906130a9565b92505081905550816002600083815260200190815260200160002060006101000a81548173ffffffffffffffffffffffffffffffffffffffff021916908373ffffffffffffffffffffffffffffffffffffffff160217905550808273ffffffffffffffffffffffffffffffffffffffff168473ffffffffffffffffffffffffffffffffffffffff167fddf252ad1be2c89b69c2b068fc378daa952ba7f163c4a11628f55a4df523b3ef60405160405180910390a4611916838383611ec4565b505050565b8173ffffffffffffffffffffffffffffffffffffffff168373ffffffffffffffffffffffffffffffffffffffff16141561198a576040517f08c379a000000000000000000000000000000000000000000000000000000000815260040161198190612e40565b60405180910390fd5b80600560008573ffffffffffffffffffffffffffffffffffffffff1673ffffffffffffffffffffffffffffffffffffffff16815260200190815260200160002060008473ffffffffffffffffffffffffffffffffffffffff1673ffffffffffffffffffffffffffffffffffffffff16815260200190815260200160002060006101000a81548160ff0219169083151502179055508173ffffffffffffffffffffffffffffffffffffffff168373ffffffffffffffffffffffffffffffffffffffff167f17307eab39ab6107e8899845ad3d59bd9653f200f220920489ca2b5937696c3183604051611a7b9190612d45565b60405180910390a3505050565b611a938484846116b4565b611a9f84848484611ec9565b611ade576040517f08c379a0000000000000000000000000000000000000000000000000000000008152600401611ad590612dc0565b60405180910390fd5b50505050565b606060405180602001604052806000815250905090565b6060611b06826112c9565b611b45576040517f08c379a0000000000000000000000000000000000000000000000000000000008152600401611b3c90612f60565b60405180910390fd5b6000611b4f611ae4565b90506000815111611b6f5760405180602001604052806000815250611b9a565b80611b79846113f6565b604051602001611b8a929190612b42565b6040516020818303038152906040525b915050919050565b600081600001549050919050565b6060600082511415611bd357604051806020016040528060008152509050611d4a565b6000604051806060016040528060408152602001613b776040913990506000600360028551611c0291906130a9565b611c0c91906130ff565b6004611c189190613130565b90506000602082611c2991906130a9565b67ffffffffffffffff811115611c68577f4e487b7100000000000000000000000000000000000000000000000000000000600052604160045260246000fd5b6040519080825280601f01601f191660200182016040528015611c9a5781602001600182028036833780820191505090505b509050818152600183018586518101602084015b81831015611d09576003830192508251603f8160121c168501518253600182019150603f81600c1c168501518253600182019150603f8160061c168501518253600182019150603f8116850151825360018201915050611cae565b600389510660018114611d235760028114611d3357611d3e565b613d3d60f01b6002830352611d3e565b603d60f81b60018303525b50505050508093505050505b919050565b611d69828260405180602001604052806000815250612060565b5050565b611d76826112c9565b611db5576040517f08c379a0000000000000000000000000000000000000000000000000000000008152600401611dac90612ee0565b60405180910390fd5b80600660008481526020019081526020016000209080519060200190611ddc9291906122b8565b505050565b611e7b838383604051602401611df993929190612d82565b6040516020818303038152906040527fe3849f79000000000000000000000000000000000000000000000000000000007bffffffffffffffffffffffffffffffffffffffffffffffffffffffff19166020820180517bffffffffffffffffffffffffffffffffffffffffffffffffffffffff8381831617835250505050611e96565b505050565b6001816000016000828254019250508190555050565b60008151905060006a636f6e736f6c652e6c6f679050602083016000808483855afa5050505050565b505050565b505050565b6000611eea8473ffffffffffffffffffffffffffffffffffffffff166120bb565b15612053578373ffffffffffffffffffffffffffffffffffffffff1663150b7a02611f13611335565b8786866040518563ffffffff1660e01b8152600401611f359493929190612cd0565b602060405180830381600087803b158015611f4f57600080fd5b505af1925050508015611f8057506040513d601f19601f82011682018060405250810190611f7d91906125fc565b60015b612003573d8060008114611fb0576040519150601f19603f3d011682016040523d82523d6000602084013e611fb5565b606091505b50600081511415611ffb576040517f08c379a0000000000000000000000000000000000000000000000000000000008152600401611ff290612dc0565b60405180910390fd5b805181602001fd5b63150b7a0260e01b7bffffffffffffffffffffffffffffffffffffffffffffffffffffffff1916817bffffffffffffffffffffffffffffffffffffffffffffffffffffffff191614915050612058565b600190505b949350505050565b61206a83836120de565b6120776000848484611ec9565b6120b6576040517f08c379a00000000000000000000000000000000000000000000000000000000081526004016120ad90612dc0565b60405180910390fd5b505050565b6000808273ffffffffffffffffffffffffffffffffffffffff163b119050919050565b600073ffffffffffffffffffffffffffffffffffffffff168273ffffffffffffffffffffffffffffffffffffffff16141561214e576040517f08c379a000000000000000000000000000000000000000000000000000000000815260040161214590612f00565b60405180910390fd5b612157816112c9565b15612197576040517f08c379a000000000000000000000000000000000000000000000000000000000815260040161218e90612e00565b60405180910390fd5b6121a360008383611ebf565b6001600360008473ffffffffffffffffffffffffffffffffffffffff1673ffffffffffffffffffffffffffffffffffffffff16815260200190815260200160002060008282546121f391906130a9565b92505081905550816002600083815260200190815260200160002060006101000a81548173ffffffffffffffffffffffffffffffffffffffff021916908373ffffffffffffffffffffffffffffffffffffffff160217905550808273ffffffffffffffffffffffffffffffffffffffff16600073ffffffffffffffffffffffffffffffffffffffff167fddf252ad1be2c89b69c2b068fc378daa952ba7f163c4a11628f55a4df523b3ef60405160405180910390a46122b460008383611ec4565b5050565b8280546122c490613274565b90600052602060002090601f0160209004810192826122e6576000855561232d565b82601f106122ff57805160ff191683800117855561232d565b8280016001018555821561232d579182015b8281111561232c578251825591602001919060010190612311565b5b50905061233a919061233e565b5090565b5b8082111561235757600081600090555060010161233f565b5090565b600061236e61236984613020565b612ffb565b90508281526020810184848401111561238657600080fd5b612391848285613232565b509392505050565b6000813590506123a881613b1a565b92915050565b6000813590506123bd81613b31565b92915050565b6000813590506123d281613b48565b92915050565b6000815190506123e781613b48565b92915050565b600082601f8301126123fe57600080fd5b813561240e84826020860161235b565b91505092915050565b60008135905061242681613b5f565b92915050565b60006020828403121561243e57600080fd5b600061244c84828501612399565b91505092915050565b6000806040838503121561246857600080fd5b600061247685828601612399565b925050602061248785828601612399565b9150509250929050565b6000806000606084860312156124a657600080fd5b60006124b486828701612399565b93505060206124c586828701612399565b92505060406124d686828701612417565b9150509250925092565b600080600080608085870312156124f657600080fd5b600061250487828801612399565b945050602061251587828801612399565b935050604061252687828801612417565b925050606085013567ffffffffffffffff81111561254357600080fd5b61254f878288016123ed565b91505092959194509250565b6000806040838503121561256e57600080fd5b600061257c85828601612399565b925050602061258d858286016123ae565b9150509250929050565b600080604083850312156125aa57600080fd5b60006125b885828601612399565b92505060206125c985828601612417565b9150509250929050565b6000602082840312156125e557600080fd5b60006125f3848285016123c3565b91505092915050565b60006020828403121561260e57600080fd5b600061261c848285016123d8565b91505092915050565b60006020828403121561263757600080fd5b600061264584828501612417565b91505092915050565b612657816131be565b82525050565b612666816131d0565b82525050565b600061267782613066565b612681818561307c565b9350612691818560208601613241565b61269a8161340d565b840191505092915050565b60006126b082613071565b6126ba818561308d565b93506126ca818560208601613241565b6126d38161340d565b840191505092915050565b60006126e982613071565b6126f3818561309e565b9350612703818560208601613241565b80840191505092915050565b6000815461271c81613274565b612726818661309e565b94506001821660008114612741576001811461275257612785565b60ff19831686528186019350612785565b61275b85613051565b60005b8381101561277d5781548189015260018201915060208101905061275e565b838801955050505b50505092915050565b600061279b60258361309e565b91506127a68261341e565b602582019050919050565b60006127be60328361308d565b91506127c98261346d565b604082019050919050565b60006127e160258361308d565b91506127ec826134bc565b604082019050919050565b6000612804601c8361308d565b915061280f8261350b565b602082019050919050565b6000612827600a8361309e565b915061283282613534565b600a82019050919050565b600061284a60248361308d565b91506128558261355d565b604082019050919050565b600061286d60198361308d565b9150612878826135ac565b602082019050919050565b600061289060638361309e565b915061289b826135d5565b606382019050919050565b60006128b3600b8361309e565b91506128be82613670565b600b82019050919050565b60006128d6602c8361308d565b91506128e182613699565b604082019050919050565b60006128f9600d8361309e565b9150612904826136e8565b600d82019050919050565b600061291c60388361308d565b915061292782613711565b604082019050919050565b600061293f602a8361308d565b915061294a82613760565b604082019050919050565b600061296260298361308d565b915061296d826137af565b604082019050919050565b6000612985602e8361308d565b9150612990826137fe565b604082019050919050565b60006129a860028361309e565b91506129b38261384d565b600282019050919050565b60006129cb60208361308d565b91506129d682613876565b602082019050919050565b60006129ee60318361308d565b91506129f98261389f565b604082019050919050565b6000612a11602c8361308d565b9150612a1c826138ee565b604082019050919050565b6000612a34602f8361308d565b9150612a3f8261393d565b604082019050919050565b6000612a57600a8361309e565b9150612a628261398c565b600a82019050919050565b6000612a7a60458361308d565b9150612a85826139b5565b606082019050919050565b6000612a9d60218361308d565b9150612aa882613a2a565b604082019050919050565b6000612ac0600a8361309e565b9150612acb82613a79565b600a82019050919050565b6000612ae3601d8361309e565b9150612aee82613aa2565b601d82019050919050565b6000612b0660318361308d565b9150612b1182613acb565b604082019050919050565b612b2581613228565b82525050565b6000612b3782846126de565b915081905092915050565b6000612b4e82856126de565b9150612b5a82846126de565b91508190509392505050565b6000612b7282866126de565b9150612b7e82856126de565b9150612b8a82846126de565b9150819050949350505050565b6000612ba3828561270f565b9150612baf82846126de565b9150612bba826128ec565b91508190509392505050565b6000612bd18261278e565b9150612bdd82846126de565b915081905092915050565b6000612bf38261281a565b9150612bff82846126de565b915081905092915050565b6000612c15826128a6565b9150612c2182846126de565b915081905092915050565b6000612c3782612a4a565b9150612c4382856126de565b9150612c4e82612883565b9150612c5a82846126de565b9150612c658261299b565b91508190509392505050565b6000612c7c82612ab3565b9150612c8882846126de565b915081905092915050565b6000612c9e82612ad6565b9150612caa82846126de565b915081905092915050565b6000602082019050612cca600083018461264e565b92915050565b6000608082019050612ce5600083018761264e565b612cf2602083018661264e565b612cff6040830185612b1c565b8181036060830152612d11818461266c565b905095945050505050565b6000604082019050612d31600083018561264e565b612d3e6020830184612b1c565b9392505050565b6000602082019050612d5a600083018461265d565b92915050565b60006020820190508181036000830152612d7a81846126a5565b905092915050565b60006060820190508181036000830152612d9c81866126a5565b9050612dab6020830185612b1c565b612db8604083018461264e565b949350505050565b60006020820190508181036000830152612dd9816127b1565b9050919050565b60006020820190508181036000830152612df9816127d4565b9050919050565b60006020820190508181036000830152612e19816127f7565b9050919050565b60006020820190508181036000830152612e398161283d565b9050919050565b60006020820190508181036000830152612e5981612860565b9050919050565b60006020820190508181036000830152612e79816128c9565b9050919050565b60006020820190508181036000830152612e998161290f565b9050919050565b60006020820190508181036000830152612eb981612932565b9050919050565b60006020820190508181036000830152612ed981612955565b9050919050565b60006020820190508181036000830152612ef981612978565b9050919050565b60006020820190508181036000830152612f19816129be565b9050919050565b60006020820190508181036000830152612f39816129e1565b9050919050565b60006020820190508181036000830152612f5981612a04565b9050919050565b60006020820190508181036000830152612f7981612a27565b9050919050565b60006020820190508181036000830152612f9981612a6d565b9050919050565b60006020820190508181036000830152612fb981612a90565b9050919050565b60006020820190508181036000830152612fd981612af9565b9050919050565b6000602082019050612ff56000830184612b1c565b92915050565b6000613005613016565b905061301182826132a6565b919050565b6000604051905090565b600067ffffffffffffffff82111561303b5761303a6133de565b5b6130448261340d565b9050602081019050919050565b60008190508160005260206000209050919050565b600081519050919050565b600081519050919050565b600082825260208201905092915050565b600082825260208201905092915050565b600081905092915050565b60006130b482613228565b91506130bf83613228565b9250827fffffffffffffffffffffffffffffffffffffffffffffffffffffffffffffffff038211156130f4576130f3613351565b5b828201905092915050565b600061310a82613228565b915061311583613228565b92508261312557613124613380565b5b828204905092915050565b600061313b82613228565b915061314683613228565b9250817fffffffffffffffffffffffffffffffffffffffffffffffffffffffffffffffff048311821515161561317f5761317e613351565b5b828202905092915050565b600061319582613228565b91506131a083613228565b9250828210156131b3576131b2613351565b5b828203905092915050565b60006131c982613208565b9050919050565b60008115159050919050565b60007fffffffff0000000000000000000000000000000000000000000000000000000082169050919050565b600073ffffffffffffffffffffffffffffffffffffffff82169050919050565b6000819050919050565b82818337600083830152505050565b60005b8381101561325f578082015181840152602081019050613244565b8381111561326e576000848401525b50505050565b6000600282049050600182168061328c57607f821691505b602082108114156132a05761329f6133af565b5b50919050565b6132af8261340d565b810181811067ffffffffffffffff821117156132ce576132cd6133de565b5b80604052505050565b60006132e282613228565b91507fffffffffffffffffffffffffffffffffffffffffffffffffffffffffffffffff82141561331557613314613351565b5b600182019050919050565b600061332b82613228565b915061333683613228565b92508261334657613345613380565b5b828206905092915050565b7f4e487b7100000000000000000000000000000000000000000000000000000000600052601160045260246000fd5b7f4e487b7100000000000000000000000000000000000000000000000000000000600052601260045260246000fd5b7f4e487b7100000000000000000000000000000000000000000000000000000000600052602260045260246000fd5b7f4e487b7100000000000000000000000000000000000000000000000000000000600052604160045260246000fd5b6000601f19601f8301169050919050565b7f68747470733a2f2f6e6674707265766965772e30786465762e636f6465732f3f60008201527f636f64653d000000000000000000000000000000000000000000000000000000602082015250565b7f4552433732313a207472616e7366657220746f206e6f6e20455243373231526560008201527f63656976657220696d706c656d656e7465720000000000000000000000000000602082015250565b7f4552433732313a207472616e736665722066726f6d20696e636f72726563742060008201527f6f776e6572000000000000000000000000000000000000000000000000000000602082015250565b7f4552433732313a20746f6b656e20616c7265616479206d696e74656400000000600082015250565b7f54484952445f574f524400000000000000000000000000000000000000000000600082015250565b7f4552433732313a207472616e7366657220746f20746865207a65726f2061646460008201527f7265737300000000000000000000000000000000000000000000000000000000602082015250565b7f4552433732313a20617070726f766520746f2063616c6c657200000000000000600082015250565b7f222c20226465736372697074696f6e223a20224120686967686c79206163636c60008201527f61696d656420636f6c6c656374696f6e206f6620737175617265732e222c202260208201527f696d616765223a2022646174613a696d6167652f7376672b786d6c3b6261736560408201527f36342c0000000000000000000000000000000000000000000000000000000000606082015250565b7f5345434f4e445f574f5244000000000000000000000000000000000000000000600082015250565b7f4552433732313a206f70657261746f7220717565727920666f72206e6f6e657860008201527f697374656e7420746f6b656e0000000000000000000000000000000000000000602082015250565b7f3c2f746578743e3c2f7376673e00000000000000000000000000000000000000600082015250565b7f4552433732313a20617070726f76652063616c6c6572206973206e6f74206f7760008201527f6e6572206e6f7220617070726f76656420666f7220616c6c0000000000000000602082015250565b7f4552433732313a2062616c616e636520717565727920666f7220746865207a6560008201527f726f206164647265737300000000000000000000000000000000000000000000602082015250565b7f4552433732313a206f776e657220717565727920666f72206e6f6e657869737460008201527f656e7420746f6b656e0000000000000000000000000000000000000000000000602082015250565b7f45524337323155524953746f726167653a2055524920736574206f66206e6f6e60008201527f6578697374656e7420746f6b656e000000000000000000000000000000000000602082015250565b7f227d000000000000000000000000000000000000000000000000000000000000600082015250565b7f4552433732313a206d696e7420746f20746865207a65726f2061646472657373600082015250565b7f45524337323155524953746f726167653a2055524920717565727920666f722060008201527f6e6f6e6578697374656e7420746f6b656e000000000000000000000000000000602082015250565b7f4552433732313a20617070726f76656420717565727920666f72206e6f6e657860008201527f697374656e7420746f6b656e0000000000000000000000000000000000000000602082015250565b7f4552433732314d657461646174613a2055524920717565727920666f72206e6f60008201527f6e6578697374656e7420746f6b656e0000000000000000000000000000000000602082015250565b7f7b226e616d65223a202200000000000000000000000000000000000000000000600082015250565b7fd092d18b20d181d0bed0b7d0b4d0b0d0bbd0b820d0bcd0b0d0bad181d0b8d0bc60008201527fd0b0d0bbd18cd0bdd0bed0b520d0bad0bed0bbd0b8d187d0b5d181d182d0b2d060208201527fbe206e6674000000000000000000000000000000000000000000000000000000604082015250565b7f4552433732313a20617070726f76616c20746f2063757272656e74206f776e6560008201527f7200000000000000000000000000000000000000000000000000000000000000602082015250565b7f46495253545f574f524400000000000000000000000000000000000000000000600082015250565b7f646174613a6170706c69636174696f6e2f6a736f6e3b6261736536342c000000600082015250565b7f4552433732313a207472616e736665722063616c6c6572206973206e6f74206f60008201527f776e6572206e6f7220617070726f766564000000000000000000000000000000602082015250565b613b23816131be565b8114613b2e57600080fd5b50565b613b3a816131d0565b8114613b4557600080fd5b50565b613b51816131dc565b8114613b5c57600080fd5b50565b613b6881613228565b8114613b7357600080fd5b5056fe4142434445464748494a4b4c4d4e4f505152535455565758595a6162636465666768696a6b6c6d6e6f707172737475767778797a303132333435363738392b2fa2646970667358221220fb2a692430bf88829ba5231d0490f1a45a0f591611ec56debc8ad67f96225e5a64736f6c634300080400333c73766720786d6c6e733d27687474703a2f2f7777772e77332e6f72672f323030302f73766727207072657365727665417370656374526174696f3d27784d696e594d696e206d656574272076696577426f783d273020302033353020333530273e3c7374796c653e2e62617365207b2066696c6c3a2077686974653b20666f6e742d66616d696c793a2073657269663b20666f6e742d73697a653a20323470783b207d3c2f7374796c653e3c726563742077696474683d273130302527206865696768743d2731303025272066696c6c3d27626c61636b27202f3e3c7465787420783d273530252720793d273530252720636c6173733d27626173652720646f6d696e616e742d626173656c696e653d276d6964646c652720746578742d616e63686f723d276d6964646c65273e",
  "linkReferences": {},
  "deployedLinkReferences": {}
}